:20000000F894112481E08093E20580E092EC809308089093090880EC8093060880E090EA28
:200020000000019711F40C9400012091040827FFF7CF20910008263099F78AEA80930208A9
:2000400024EA35EA46EA9DE958E062E08091040887FFFCCF80910008811119C0809102102E
:2000600080FDFCCF94BF609300108091040887FFFCCF009000088091040887FFFCCF1090CE
:200080000008F895112494BF109200104AC0813071F48091040887FFFCCF8091000888233F
:2000A00009F43FC07791709302088150F8CF823061F494BF50930010E8958091021080FD2D
:2000C000FCCF94BF109200102CC0833081F48091040887FFFCCFE09100088091040887FFB2
:2000E000FCCFF0910008809100088BBF1AC0843061F48091040887FFFCCF809100088370EC
:200100008295807F809301100FC0853011F40C940001863019F44093020898CF30930208A7
:2001200095CF2093020892CFFFFFFFFFFFFFFFFFFFFFFFFFFFFFFFFFFFFFFFFFFFFFFFFF55
:20014000FFFFFFFFFFFFFFFFFFFFFFFFFFFFFFFFFFFFFFFFFFFFFFFFFFFFFFFFFFFFFFFFBF
:20016000FFFFFFFFFFFFFFFFFFFFFFFFFFFFFFFFFFFFFFFFFFFFFFFFFFFFFFFFFFFFFFFF9F
:20018000FFFFFFFFFFFFFFFFFFFFFFFFFFFFFFFFFFFFFFFFFFFFFFFFFFFFFFFFFFFFFFFF7F
:2001A000FFFFFFFFFFFFFFFFFFFFFFFFFFFFFFFFFFFFFFFFFFFFFFFFFFFFFFFFFFFFFFFF5F
:2001C000FFFFFFFFFFFFFFFFFFFFFFFFFFFFFFFFFFFFFFFFFFFFFFFFFFFFFFFFFFFFFFFF3F
:2001E000FFFFFFFFFFFFFFFFFFFFFFFFFFFFFFFFFFFFFFFFFFFFFFFFFFFFFFFFFFFFFFFF1F
:200200000C943A040C9464040C9464040C94F5160C9464040C9464040C9478170C946404FE
:200220000C9464040C9464040C9464040C9464040C9464040C9464040C9464040C9464047E
:200240000C9464040C9464040C9464040C9464040C9464040C9464040C9464040C9464045E
:200260000C94D8270C94B9270C9464040C9464040C9464040C9464040C9464040C9464042F
:200280000C9464040C9464040C9484160C9464040C9464040C9464040C9464040C946404EC
:2002A0000C9464040C9464040C9464040C946404D110D610E5101411D91119112B131C11BE
:2002C0005513551355135513551355135513551355135513551355130F1348111F111F1163
:2002E0001F111F111F115411551355130F135811BB11BF11C611D2111B12551355135513F3
:20030000D911DC11E011E711EE11051255135513551355130F1308120C120E1210121412A5
:2003200055135513551355130F1374127D128B12911298129F12AF12551355131B121E125D
:200340004C125912551355135513551355135513F312F312F312F3121213551355135513F3
:20036000551355132B131513151315131513084AD73B3BCE016E84BCBFFDC12F3D6C7431B9
:200380009ABD56833DDA3D00C77F11BED9E4BB4C3E916BAAAABE000000803F002020202075
:2003A0000043757272656E742076616C75653A2000E0FF0000E007A0FF00F8000000000066
:2003C000000000020101000000000000000000000000000000000000000000000000070012
:2003E000010000000000000000000000000000020A000A006D0000000200000000150180E1
:20040000961180FAB103012C2DB203012C2DB306012C2D012C2DB40107C003A20284C101C8
:20042000C5C2020A00C3028A2AC4028AEEC5010E20003601C83A01052A040000007F2B0463
:200440000000007FE010021C07123732292D29252B3900010310E110031D07062E2C292DA3
:200460002E2E373F0000021013800A298064E0FF0000E007A0FF00F8000000000000000091
:20048000020101000000000000000000000000000000000000000000000000070001000050
:2004A000000000000000000000000000020A000A006D0000000200000000E0FF0000E007F1
:2004C000A0FF00F80000000000000000020101000000000000000000000000000000000081
:2004E000000000000000000700010000000000000000000000000000020A000A006D000071
:20050000000200000000E0FF0000E007A0FF00F80000000000000000020101000000000078
:200520000000000000000000000000000000000000000007000100000000000000000000B3
:2005400000000000020A000A006D0000000200000000E0FF0000E007A0FF00F800000000B9
:20056000000000000201010000000000000000000000000000000000000000000000000770
:2005800000010000000000000000000000000000020A000A006D0000000200000000E0FFF6
:2005A0000000E007A0FF00F8000000000000000002010100000000000000000000000000B9
:2005C00000000000000000000000000700010000000000000000000000000000020A000AFD
:2005E000006D0000000200000000456469742076616C75653A00303A2048412044697361DB
:20060000626C656400536C6F776C7920726F746174650A746865206465766963650A617252
:200620006F756E642065766572790A6178697320756E74696C0A746865206E756D626572BA
:20064000730A73746F70206368616E67696E670A0A5072657373205B53454C5D20746F20F8
:2006600066696E6973680A0A204D696E3A20204F66667365743A20204D61783A002D313A4E
:2006800020436F756E742075702C20303A204F464600E0FF0000E007A0FF00F8000000001E
:2006A00000000000020101000000000000000000000000000000000000000000000000072F
:2006C00000010000000000000000000000000000020A000A006D0000000200000000E0FFB5
:2006E0000000E007A0FF00F800000000000000000201010000000000000000000000000078
:2007000000000000000000000000000700010000000000000000000000000000020A000ABB
:20072000006D000000020000000044656C6179206D733A0A0A52504D3A0A0A5072657373C3
:20074000205B53454C5D20746F2065786974005B53454C5D3A20436C6F73650053415645E5
:200760004400E0FF0000E007A0FF00F80000000000000000020101000000000000000000D4
:20078000000000000000000000000000000000070001000000000000000000000000000051
:2007A000020A000A006D000000020000000004000000001E005E01D00700000000FFFFE07E
:2007C000FF0000E007A0FF00F8000000000000000002010100000000000000000000000098
:2007E0000000000000000000000000000700010000000000000000000000000000020A00E5
:200800000A006D000000020000000053686F74730A00E0FF0000E007A0FF00F800000000E7
:200820000000000002010100000000000000000000000000000000000000000000000007AD
:2008400000010000000000000000000000000000020A000A006D00000002000000009B0572
:20086000BC0A200B750CD80C9E0E611387132F244325782C11241FBECFEFCDBFDFE7DEBF4A
:2008800010E4A0E0B0E4ECE8F2E600E00BBF02C007900D92AC3BB107D9F724E4ACEBB0E460
:2008A00001C01D92AE32B207E1F714E0CAE3D4E004C02197FE010E94EB30CF32D107C9F731
:2008C0000E940E1E0C9444310C940001E0E0F6E082E08287108283E0858780E090E0A0E83A
:2008E000BFEB8093BC409093BD40A093BE40B093BF401092A00084E0818386E082838FE028
:200900008383148280E8858385E18087148681E0808382870895CF92DF92EF92FF92CF9374
:20092000DF93C0911006D091110681E080930A06C090BC40D090BD40E090BE40F090BF404C
:2009400020E030E0A901C701B6010E948B2DAE0160E070E087FF0FC0CB01BA010E94382EE1
:200960006093BC407093BD408093BE409093BF402C2F9D2F20C0CB01BA010E94382EA70117
:2009800096010E94AC2C2AE037ED43EA5CE30E94CA2FA70196010E94AD2C6093BC40709365
:2009A000BD408093BE409093BF400E9437300E94092E262F972F822FDF91CF91FF90EF907B
:2009C000DF90CF900895CF93DF93F8940E9466042FE78AE196E0215080409040E1F700C0B0
:2009E0000000C0911006D091110682E00E943B277894CE01DF91CF910895CF92DF92EF9217
:200A0000FF9220917341253028F4233030F4213020F42CC0253029F029C0C12CD12C7601EF
:200A200025C020E030E040ED50E40E94AC2C20E030E048EC52E40E94CA2F28E636E646E27F
:200A400050E40E94902D6B017C0120E030E048EC52E40E94BD2F18160CF120E030E0A9012D
:200A6000C701B6010E948B2D87FD14C020E030E0A901C701B6010E948B2D87FD0BC020E063
:200A800030E040E85FE3C701B6010E94BD2F18162CF00AC0C12CD12C760106C0C12CD12CAA
:200AA00080E8E82E8FE3F82EC701B601FF90EF90DF90CF900895EAE4F1E4158A178A80E5E0
:200AC000868B61EA73E0CF010E940A0920E030E048EC52E460917441709175418091764143
:200AE000909177410E94CA2FAB01BC0121E08AE491E40E9470096CE973E08AE491E40C94EF
:200B00000A096091104170911141072E000C880B990B0E943A2E20E030E048EC52E40E948F
:200B2000902D609374417093754180937641909377410C945B05CF92DF92EF92FF920F936C
:200B40001F9386EC93E00E94C713C12CD12C760197018601B701A60182ED93E00E94AD135F
:200B600000E010E020E83FE3B701A60181EE93E00E94AD131F910F91FF90EF90DF90CF90AC
:200B80000895E0E4F4E094E096838093640495830895009741F0E7E8F3E13197F1F700C088
:200BA00000000197F6CF08951F93CF93DF93862FC0E4D4E012E01E8391E09E830E94C1051B
:200BC0001D83DF91CF911F9108951F93CF93DF93862FC0E4D4E012E01E8391E09D830E94FF
:200BE000C1051D83DF91CF911F910895AF92BF92CF92DF92EF92FF920F931F93CF93DF93D4
:200C00008C01EB012196FB01B490BB2009F435C0FE016491C8010E94D4056E01F2E0CF0E41
:200C2000D11CFE013196C4918C2F8078A82ECF777601DC2FD15048F0F7016491C8010E94AA
:200C4000E505FFEFEF1AFF0AF5CFC6018C0F911DEC01A11002C0BA94D8CF7C019FEFE91A73
:200C6000F90AFE01849190E08F3F910511F484EF91E00E94C905E701EECFDF91CF911F910B
:200C80000F91FF90EF90DF90CF90BF90AF900895FC01128A138A22E0208B23E0218B2CE00F
:200CA000209345046DEF73E00C94F605AF92BF92CF92DF92EF92FF920F931F93CF93DF9350
:200CC0007C01A62EC42EB22EC0E4D4E082E0D82EDE8211E01E838AE20E94C1051D8380E06B
:200CE0000E94C105F70182898A0D0E94C10580E00E94C105F70182898B0D0E94C1051E831E
:200D00008BE20E94C1051D8380E00E94C105F70183898C0D0E94C10580E00E94C105F701D1
:200D20008389800F0E94C1051E838CE20E94C105DD82DF91CF911F910F91FF90EF90DF903D
:200D4000CF90BF90AF900895EF92FF920F931F93CF93C22F102F30E0260F311D21383105EF
:200D60001CF000E8C02FC61B212F30E0240F311D213831051CF000E8102F141B0FEF040FCC
:200D8000010F2FEF260F2C0F0E94560682E08093460481E0809345041C9F800111240115B4
:200DA000110549F08F2D0E94C1058E2D0E94C10501501109F4CF82E080934504CF911F91A1
:200DC0000F91FF90EF900895EF92FF920F93CF937C01C22F67FD27C047FD25C0822F90E0AF
:200DE000840F911D8138910514F0C0E8C41B0FEF040F0C0F262FC7010E94560682E080931C
:200E0000460481E080934504CC2351F0F70185850E94C105F70184850E94C105C150F4CFF4
:200E200082E080934504CF910F91FF90EF900895EF92FF920F93CF937C01C22F67FD27C07A
:200E400047FD25C0822F90E0860F911D8138910514F0C0E8C61B2FEF260F2C0F042FC701A0
:200E60000E94560682E08093460481E080934504CC2351F0F70185850E94C105F70184855D
:200E80000E94C105C150F4CF82E080934504CF910F91FF90EF900895EF92FF920F937B017D
:200EA00000E820E840E060E00E94A4060F91FF90EF900895EF92FF920F9367FD03C047FF2A
:200EC0000E94A4060F91FF90EF900895EF92FF920F931F93CF93DF937C01C62F142FD22F8B
:200EE0000E9418074FEF400F410F2D2F6C2FC7010E941807202F412F6C2FC7010E94E40626
:200F00006FEF6D0F6C0F202F412FC701DF91CF911F910F91FF90EF900C94E4062F923F92AB
:200F20004F925F926F927F928F929F92AF92BF92CF92DF92EF92FF920F931F93CF93DF93DD
:200F4000CDB7DEB72797CDBFDEBF8E839F83122F702E0FEF070D040F2FEF210F260F0E9435
:200F6000560682E08093460481E080934504612C012F10E0872D90E01C012C183D08882773
:200F800099278C199D098A839B83F801EE19FF09EC83FD83442455244E185F086714D9F131
:200FA000812C912CA62CB12C8016910691F1F7FE04C08414950434F416C08C819D818816B8
:200FC00099068CF4D7FE06C0EA81FB81AE16BF0624F409C0A214B30434F4EE81FF81858578
:200FE000F1E0F98304C0EE81FF81878519820E94C105F981FF2321F0EE81FF81848503C07A
:20100000EE81FF8186850E94C105FFEF8F1A9F0ACBCF6394C3CF82E0809345042796CDBF04
:20102000DEBFDF91CF911F910F91FF90EF90DF90CF90BF90AF909F908F907F906F905F903E
:201040004F903F902F900895DC01FB01949116969C9316973196E4911796EC9317979E9FAD
:20106000F0011124379683E0F595E7958A95E1F71A96ED93FC931B97FB013296E4911896C5
:20108000EC9318976D5F7F4F14966D937C93159708952FE330E8FC012083318320E030E8F0
:2010A0002283338320E221876FE370E80C9424089F92AF92BF92CF92DF92EF92FF920F936C
:2010C0001F93CF93DF93EC018985681708F46FE7E62EE81A4E896D890F81040F01502E8138
:2010E000260F2150CE010E94560682E08093460481E080934504C12CD12CA12CB12C10E07D
:20110000F12C8E819F81899FC0011124C816D90648F5111114C08A859B85E89EF001E99E48
:20112000F00DF89EF00D1124EA0DFB1D8C819D81E80FF91F94908FEFA81AB80A10E8812FD3
:20114000892129F08D850E94C1058C8504C08F850E94C1058E850E94C10516958FEFC81A7B
:20116000D80ACFCF82E08093450498852D898E81820F890F813810F48D8B06C01D8A8E89CD
:20118000890F9F81890F8E8BDF91CF911F910F91FF90EF90DF90CF90BF90AF909F90089590
:2011A000CF92DF92EF92FF920F931F93CF93DF93EC016B01F60111916F01112311F11A3041
:2011C00029F0612FCE010E94580808C08F898D8B9E898F81890F9885890F8E8BF601808108
:2011E000882341F31A3031F38A3021F3EE84FF846D8961500F8128854E89CE010E945A0752
:20120000D9CFDF91CF911F910F91FF90EF90DF90CF900895BF92CF92DF92EF92FF920F93B6
:201220001F93CF93DF93EC016B01FB011491C60101966C01112329F11A3029F0612FCE0153
:201240000E94580808C08F898D8B9E898F81890F9885890F8E8BF601B490B11002C01B2DF1
:20126000E6CF1A30E1F3FAE0BF16C9F3EE84FF846D8961500F8128854E89CE010E945A07AE
:20128000EECFDF91CF911F910F91FF90EF90DF90CF90BF9008951F93CF93DF93EC01CB016A
:2012A000642F0E94730B182F6A817B81CE010E9424081986112351F01150E12FF0E0EC531C
:2012C000FE4B6081CE010E945808F4CF80E2898768817981CE01DF91CF911F910C942408E0
:2012E0001F93CF93DF93EC01CB01BA01422F0E94C90B182F6A817B81CE010E9424081986A3
:20130000112351F01150E12FF0E0EC53FE4B6081CE010E945808F4CF80E2898768817981C5
:20132000CE01DF91CF911F910C942408FF920F931F93CF93DF93F42EEB018B01045F1F4F6E
:2013400049915991699179912F2D8AE491E40E94700960E28AE491E40E945808C017D10795
:2013600079F7DF91CF911F910F91FF9008952F923F924F925F926F927F928F929F92AF92A8
:20138000BF92CF92DF92EF92FF920F931F93CF93DF93CDB7DEB72997CDBFDEBF88879987BF
:2013A0005901C701F901D4903196F49017FF04C0202E219410E002C0102F212C97FF05C0EC
:2013C000F82FF195FA83E12C02C0E82E1A820FEF040F0F0D2FEF260F2D0D888599850E94DB
:2013E00056068D2D90E06F2C712CDF9C900111242C833D8322E02093460421E02093450483
:20140000812C912C22E0C22ED12C412C312C512CFC01E11BF109EE83FF836E1871088C01BA
:20142000015011092C813D818216930609F43FC041100AC0F501EC0DFD1D34913B838FEF84
:20144000C81AD80A80E8482EE52CF12C8B81842109F446C0521408F443C0EE81FF81EE16B0
:20146000FF06F4F5FA813F16D8F1832D90E086159705B4F5E885F9858585F1E0F9830E9401
:20148000C1052981E885F985222311F0848501C086850E94C1054694E016F10614F45394B8
:2014A00002C03394512CFFEF8F1A9F0ABBCF82E0809345042996CDBFDEBFDF91CF911F9136
:2014C0000F91FF90EF90DF90CF90BF90AF909F908F907F906F905F904F903F902F900895AD
:2014E000E885F98587851982CACFEF92FF920F931F93E12CF12C00E010E00E94B7091F914F
:201500000F91FF90EF9008951F93CF93DF93EC01162F66E30E94D4051C8B1130B1F068F023
:201520001230D9F0133021F568E6CE010E94E50588898B8B898982501AC068ECCE010E94F4
:20154000E50588898A8B898910C068EACE010E94E50588898B8B89890AC06CE0CE010E942C
:20156000E50588898A8B898982508B8B01C08A8BDF91CF911F910895CF92DF92EF92FF928A
:201580000F931F9383E894E00E94C713C12CD12C760197018601B701A6018FE894E00E9430
:2015A000AD1300E010E020E83FE3B701A6018EE994E00E94AD131F910F91FF90EF90DF90F8
:2015C000CF900895FC018081681769F08091021081FDFCCF9DE994BF83E18093001060838A
:2015E00094BF1092001008959C01240F311DFC01E217F30728F48191DB018D93BD01F8CF8C
:2016000008959C01240F311DA9012DE924BF23E120930010FB018417950768F42191DC0187
:201620003C91231731F03091021031FDFCCFDC012C930196F0CF8DE984BF109200100895BC
:20164000CF92DF92EF92FF920F931F938FEC94E00E94C713C12CD12C760197018601B701AF
:20166000A6018BED94E00E94AD1300E010E020E83FE3B701A6018AEE94E00E94AD138CE75B
:2016800091E40E94C71388E891E40E94C71387E991E40E94C7138AE491E40E94490880E061
:2016A00091E40E94C71384EF90E40E94C713E0ECF0E484E3DF011D928A95E9F7CF010E94CF
:2016C000C7138CEC90E40E94C71388ED90E40E94C71384EE90E41F910F91FF90EF90DF90B0
:2016E000CF900C94C7130F931F93CF93DF93EC01262F97FF04C0882799278C1B9D0B30E07F
:201700000AE010E0E32FF0E0EC53FE4BB8010E94B8308083CB01E1E0E30F009711F03E2FBB
:20172000F1CF222379F0E21738F4AE2FB0E0AC53BE4B1C92EF5FF7CFD7FD07C02E1718F5F2
:20174000E22F21C0D7FF1FC015C0E2130BC0EFEFE20FF0E0EC53FE4B8AE08083E22F211176
:20176000EDCF11C0AE2FB0E0AC53BE4B8AE08C93EF5FE4CFEE2359F3F0E0EC53FE4B8AE0BE
:201780008083E2E0E30F8E2FDF91CF911F910F9108953F924F925F926F927F928F929F9211
:2017A000AF92BF92CF92DF92EF92FF920F931F93CF93DF936B017C01842E042F10E0F801D4
:2017C000EE0FFF1FE050F04C60817181072E000C880B990B0E943A2EA70196010E94CA2F53
:2017E0006B017C0120E23CEB4EEB5CE40E94BD2F18162CF48AE08093C44181E064C020E07B
:2018000030E0A901C701B6010E948B2D2601370187FF04C077FA709477F87094912CC8011E
:201820008C539E4B5C018BE0382E20E030E040E251E4C301B2010E94972EC92DD0E0CC53A8
:20184000DE4B0E94092E688320E030E040E251E4C301B2010E94902D2B013C01C1E0C90D7E
:201860008C1204C0F5013082C2E0C90D20E030E040E85FE3C301B2010E94BD2F87FD02C021
:201880009C2ED3CFC815E0F38C2F90E00F5F1F4F8017910729F4FC01EC53FE4B1082CF5F94
:2018A00020E030E0A901C701B6010E948B2D87FF09C0EC2FF0E0EC53FE4B8AE0808381E005
:2018C0008C0F01C08C2FDF91CF911F910F91FF90EF90DF90CF90BF90AF909F908F907F900A
:2018E0006F905F904F903F900895CF92DF92EF92FF920F931F938BE195E00E94C713C12C2D
:20190000D12C760197018601B701A60187E295E00E94AD1300E010E020E83FE3B701A6013C
:2019200086E395E00E94AD131F910F91FF90EF90DF90CF900895CF93DF93EF93FF93FB01BA
:20194000EC0180E0841721F0959199938F5FFACFFF91EF91DF91CF9108950F931F93CF9352
:20196000DF938C01809163418093624185E1809363416091694170916A418AE491E40E9414
:201980004C07CAE4D1E41D8A1F8A8AE08E8BB801CE010E940A091D8A1F8A84E78E8B68E461
:2019A00073E6CE01DF91CF911F910F910C940A09CF92DF92EF92FF920F931F9387E695E012
:2019C0000E94C713C12CD12C760197018601B701A60183E795E00E94AD1300E010E020E893
:2019E0003FE3B701A60182E895E00E94AD131F910F91FF90EF90DF90CF900895982F990FED
:201A0000909307099091050996FFFCCF609308099091050996FFFCCF880F816080930709D6
:201A2000222389F08091050987FFFCCF80910809FA018193AF01215011F487E001C082E097
:201A400080930409EDCF0895880F809307098091050986FFFCCF609308098091050986FF3C
:201A6000FCCF409308098091050986FFFCCF83E0809304090895AF92BF92CF92DF92EF9243
:201A8000FF920F931F93CF93DF93CDB7DEB72C97CDBFDEBF5C01C12CD12CE12C8FECF82E93
:201AA00097018601B701A601CE0101960E94AD138CE0FE013196D50101900D928A95E1F7B1
:201AC000C12CD12CE12C9FE4F92E97018601B701A601CE0101960E94AD138CE0FE013196ED
:201AE000D5011C9601900D928A95E1F780E090E0A0E0BFE3F50180AB91ABA2ABB3AB47E214
:201B000060E289E10E94240D40E463E289E10E94240D44E160E08EE10E94240D40E261E096
:201B20008EE10E94240D40E062E08EE10E94240D2C96CDBFDEBFDF91CF911F910F91FF9025
:201B4000EF90DF90CF90BF90AF9008954F925F926F927F92AF92BF92CF92DF92EF92FF92B3
:201B60000F931F93CF93DF93CDB7DEB76297CDBFDEBF5C01F62E662319F089E168EA02C071
:201B80008EE163E026E0AE01435F5F4F0E94FE0C88E1A80EB11C8CE0F89EA00CB11C112446
:201BA000698970E0762F66278A89682B072E000C880B990B0E943A2E6B017C016F8570E05C
:201BC000762F66278889682B072E000C880B990B0E943A2E2B013C016D8570E0762F6627D0
:201BE0008E85682B072E000C880B990B0E943A2EAB01BC0193018201CE0101960E94AD1375
:201C00008CE0FE013196D50101900D928A95E1F76296CDBFDEBFDF91CF911F910F91FF90C5
:201C2000EF90DF90CF90BF90AF907F906F905F904F900895CF92DF92EF92FF920F931F9318
:201C4000CF93DF93CDB7DEB7E097CDBFDEBF8C0160E00E94A60D61E0C8010E94A60D8CE00A
:201C6000F8017896DE01959601900D928A95E1F76CE771E4CE0185960E940D1468E871E432
:201C8000CE0185960E944514CE0185960E94D2158CE0F801B496DE01599601900D928A9520
:201CA000E1F7CE0149960E94D215AE01475E5F4FBE016B5D7F4FCE010D960E94B114CE0116
:201CC0000D960E94D215AE01435F5F4FBE01675E7F4FCE0101960E94B114CE0101960E94B2
:201CE000D2156EEC71E4CE0101960E9462156B017C016EEC71E4CE010D960E946215A70104
:201D000096010E942C2D2BED3FE049E450E40E94AD2C21EE3EE245E652E40E94CA2F0E9451
:201D2000092ECB01E096CDBFDEBFDF91CF911F910F91FF90EF90DF90CF900895CF92DF9296
:201D4000EF92FF920F931F9383EB95E00E94C713C12CD12C760197018601B701A6018FEB65
:201D600095E00E94AD1300E010E020E83FE3B701A6018EEC95E00E94AD139701860140E0A3
:201D800050E060E87FEB8EEC91E40E94AD131F910F91FF90EF90DF90CF900895EF92FF9235
:201DA0000F930E949D1BECEDF1E4208180E090E0922F990F990F990FE280F38025E0EE0C7B
:201DC000FF1C2A95E1F7E82AF92A84819581E82AF92A0AE12AE140E663E38AE491E40E94E5
:201DE0005A070F91FF90EF900895BF92CF92DF92EF92FF920F931F93CF93DF93C82FD62FDE
:201E0000809363416091694170916A418AE491E40E944C07EC2FF0E0EE0FFF1FE55EFF4B59
:201E2000C080D1801092E441BD2EB29440EFB4221AE0F6018491882309F451C04091E4415F
:201E40004D1751F04295407F0CE020E768E08AE491E40E9466071CC0E0906741F0906841FD
:201E60000CE020E74B2D68E08AE491E40E945A078091694190916A418093564190935741DD
:201E8000809167419091684180935841909359418091E4418295807F8E5F10935F41109337
:201EA000614180936041B6018AE491E40E940A096C018091694190916A41809358419093BA
:201EC0005941809167419091684180935641909357418091E4418F5F8093E441AACFD09348
:201EE000E541CB3009F52091DC4180E090E0922F990F990F990FE090DE41F090DF4125E038
:201F0000EE0CFF1C2A95E1F7E82AF92A8091E0419091E141E82AF92A0AE12AE140E663E3D4
:201F20008AE491E40E945A07DF91CF911F910F91FF90EF90DF90CF90BF900895CF93DF93FF
:201F4000EB01909163419093624168810E94F50EC093E241D093E341DF91CF9108957F9201
:201F60008F929F92AF92BF92CF92DF92EF92FF920F931F93CF93DF93182FB62EE091634131
:201F8000F0E0EE0FFF1FE55EFF4B80809180712E729490EF792227E6C22E21E4D22EF60100
:201FA000E280F38041E0470D0AE02EE669E08AE491E40E945A07CAE4D1E43AE0A32EAD8A25
:201FC000AF8A739473947E8A612FC4010E949E2CBC01CE010E940A091B2D1295107FF6013B
:201FE000E080F18041E0410F2EE669E0CE010E945A07F601828193818C879D878081918118
:202000008E879F87AD8AAF8A1E5F1E8B6B2DC4010E949E2CBC01CE010E940A09F6018281EB
:2020200093818E879F87808191818C879D87DF91CF911F910F91FF90EF90DF90CF90BF90BC
:20204000AF909F908F907F9008950F931F93CF93DF93BC01CAE4D1E407E611E4F801828121
:2020600093818C879D87808191818E879F879091E5419295907F9E5F24E62D8B2F8B9E8BA8
:20208000CE010E94D008F801828193818E879F87808191818C879D87DF91CF911F910F9142
:2020A0000895EF92FF920F93809318419093194160931441709315414093164150931741E0
:2020C000809163418093624187E18093634108E228E54CE264E18AE491E40E946607E090AA
:2020E0006941F0906A4106E226E54DE265E18AE491E40E945A07EAE4F1E48EE1858B878B89
:2021000080E3868B6AEE75E0CF010E940A0905E024E54DE466E18AE491E40E9466078DE94B
:202120009BE180930E4190930F410F91FF90EF900C949D1BCF92DF92EF92FF920F931F9310
:20214000CF93DF93CDB7DEB72C97CDBFDEBF182FE091E241F091E341309759F08091E541DF
:2021600080831092E2411092E34160E0809162415DC080916341823009F471C28B3079F104
:20218000E12F2AE0829FE00D11244E2F50E0FA013A97EF35F10508F088C2E85AFE4F0C94DE
:2021A000EB300E948E1C0E943E1A7FC260E082E00E94F50E86E080935F418093614184E7FD
:2021C000809360416DE776E01BC18091A341813019F00E94D11769C28DE593E65AC1111139
:2021E0004DC2E091DA41F091DB418091DC4120E030E0382F330F330F330F8091DE419091EB
:20220000DF4145E0880F991F4A95E1F7822B932B2091E0413091E141822B932B80839183D1
:202220001092DA411092DB4160E083E00E94F50E3CC260E086E0FACF60E087E0F7CFE12FF1
:20224000F0E0EE0FFF1FED59FE4BE093DA41F093DB4180819181292F269526952695209388
:20226000DC411092DD419C01207E3770B5E036952795BA95E1F72093DE413093DF418F71A7
:2022800099278093E0419093E14160E08BE0CECF609172416F5F6370609372418AE491E4EF
:2022A0000E94840A61E0C1CF69E771E48CE036C16091694170916A418AE491E40E944C07F6
:2022C00022E232E847E06EE48AE491E40E94750A10925F411092614188E08093604165E07C
:2022E00076E08AE491E40E940A09C12C6EEFD62EEE24EA9466E4F62E97018601B701A60126
:20230000CE0101960E94AD138CE0FE013196A0E0B1E401900D928A95E1F7C12CD12CE12C90
:2023200077ECF72E97018601B701A601CE0101960E94AD138CE0FE013196A4EFB0E40190E5
:202340000D928A95E1F7C12CD12C760197018601B701A601CE0101960E94AD138CE0FE01D5
:202360003196A8E8B1E401900D928A95E1F783E1809363419AC166E971E48DE0CFC047E10C
:2023800050E060E070E08DE391E406C04BE350E060E070E08BE391E40E94511081E080938A
:2023A000274183C14FE750E060E87FEF85EB91E462C160E084E03ACF63E771E48EE0AEC025
:2023C00060E088E00E94F50E0E945B056EC19091B24181E089278093B2418CC04AE050E0AE
:2023E00060E070E084E991E40E94511087E180935F41809361418EE68093604166EF75E0C6
:202400008AE491E40E940A0950C10E94171C4EC063EA71E48FE082C081E003C084E001C094
:2024200080E00E94562941C14FEF50E06FE070E08AEA91E420C160E085E0F8CE8091734112
:20244000882329F10E94660480910D068823E1F3609110067091110680E090E00E94382E11
:2024600020E030E04AE755E40E94902D20E030E040E351E40E94CA2F0E94FD046093744135
:202480007093754180937641909377410DC083EE94E60E94AD0C09C1109274411092754152
:2024A00010927641109277410E945B0588E190E453C081E895E080930C4190930D416091D7
:2024C00074417091754180917641909177410E94022E609310417093114143E650E060E0EB
:2024E00070E080E191E4C7C090917B4181E0892780937B41882359F12DC09091784181E055
:20250000892780937841811103C085E190E424C082E190E421C06AE771E480E10E949E0F1E
:20252000C4C04CE350E060E070E080EB91E4A3C045E050E061E070E08EEA91E49CC0909195
:20254000B74181E089278093B741882319F08EE090E402C08AE090E40E942510A6C08091E3
:2025600065418F5F80936541863018F00E94A81C9CC084E680935F418093614182E7809340
:2025800060418091694190916A41809356419093574180916741909168418093584190935C
:2025A000594163E170E48AE491E40E94D0088091654166E070E0681B710940E08AE491E43F
:2025C0000E944B098091694190916A418093584190935941809167419091684180935641E8
:2025E0009093574162C08091B4411817C1F02CE4829FC00111244CE467E671E48E5E9B4E4A
:202600000E94010B2CE4129FC00111244CE467E671E48E5E9B4E0E94F40A1093B44160E036
:2026200081E004CE60E08AE001CEE12FF0E031978091B44190E08E179F07B9F12CE42E9FFE
:20264000C0012F9F900D11244CE467E671E48E5E9B4E0E94010B6091B44189E0E7CD11238D
:20266000F1F2812F90E0880F991F4FE057E26FEF7FEF8A549E4B0E94511017C0123019F0E8
:202680004FE150E002C04FE350E0812F90E0880F991F60E070E086529E4B0E9451108EEC79
:2026A0009EE080930E4190930F412C96CDBFDEBFDF91CF911F910F91FF90EF90DF90CF90E0
:2026C0000895CF92DF92EF92FF920F931F9387EA96E00E94C713C12CD12C76019701860142
:2026E000B701A60183EB96E00E94AD1300E010E020E83FE3B701A60182EC96E00E94AD1396
:202700001F910F91FF90EF90DF90CF900895CF92DF92EF92FF920F931F9383EF96E00E942E
:20272000C713C12CD12C760197018601B701A6018FEF96E00E94AD1300E010E020E83FE390
:20274000B701A6018EE097E00E94AD131F910F91FF90EF90DF90CF900895CF92DF92EF92B7
:20276000FF920F931F93FC0140835183628373830483158326833783C086D186E286F38605
:202780001F910F91FF90EF90DF90CF900895FC0110821182128213821482158216821782C7
:2027A000108611861286138608950F931F93CF93DF93EC018B01FB01208131814281538197
:2027C000688179818A819B810E94AD2C688379838A839B83F80124813581468157816C8182
:2027E0007D818E819F810E94AD2C6C837D838E839F83F80120853185428553856885798531
:202800008A859B850E94AD2C688779878A879B87DF91CF911F910F9108950F931F93CF9379
:20282000DF93EC018B01FB012081318142815381688179818A819B810E94AC2C688379835C
:202840008A839B83F80124813581468157816C817D818E819F810E94AC2C6C837D838E83C6
:202860009F83F8012085318542855385688579858A859B850E94AC2C688779878A879B878D
:20288000DF91CF911F910F9108950F931F93CF93DF93EC018B01FB012081318142815381F4
:2028A000688179818A819B810E94902D688379838A839B83F80124813581468157816C81BD
:2028C0007D818E819F810E94902D6C837D838E839F83F8012085318542855385688579856C
:2028E0008A859B850E94902D688779878A879B87DF91CF911F910F910895CF92DF92EF9218
:20290000FF92CF93DF93EC016A017B019A01AB01688179818A819B810E94902D68837983E7
:202920008A839B83A70196016C817D818E819F810E94902D6C837D838E839F83A701960153
:20294000688579858A859B850E94902D688779878A879B87DF91CF91FF90EF90DF90CF9030
:2029600008954F925F926F927F928F929F92AF92BF92CF92DF92EF92FF92CF93DF93CDB7B6
:20298000DEB76297CDBFDEBF898B9A8BDB01FA012D913D914D915C91139729833A834B8338
:2029A0005C8324813581468157812D833E834F83588714964D905D906D907C901797208150
:2029C00031814281538129873A874B875C8718968D909D90AD90BC901B97C084D184E28456
:2029E000F384A7019601C301B2010E94CA2F6D877E878F87988BA50194016D817E818F81A5
:202A000098850E94CA2F9B01AC016D857E858F8598890E94AC2CE989FA8960837183828340
:202A20009383A501940169857A858B859C850E94CA2F4B015C01A701960169817A818B81B3
:202A40009C810E94CA2F9B01AC01C501B4010E94AC2CE989FA8964837583868397832D81DB
:202A60003E814F81588569817A818B819C810E94CA2F6B017C0129853A854B855C85C30176
:202A8000B2010E94CA2F9B01AC01C701B6010E94AC2CE989FA896087718782879387CF01DF
:202AA0006296CDBFDEBFDF91CF91FF90EF90DF90CF90BF90AF909F908F907F906F905F9070
:202AC0004F900895CF92DF92EF92FF920F931F93CF93DF93EC018B01FB01208131814281E3
:202AE0005381688179818A819B810E94CA2F6B017C01F80124813581468157816C817D8196
:202B00008E819F810E94CA2F9B01AC01C701B6010E94AD2C6B017C01F801208531854285A4
:202B20005385688579858A859B850E94CA2F9B01AC01C701B6010E94AD2CDF91CF911F9145
:202B40000F91FF90EF90DF90CF900895CF92DF92EF92FF920F931F93CF93DF93EC018C01D6
:202B6000045F1F4FC12CD12C760169917991899199919B01AC010E94CA2F9B01AC01C701E6
:202B8000B6010E94AD2C6B017C010C171D0769F7DF91CF911F910F91FF90EF90DF90CF9077
:202BA0000C946130CF92DF92EF92FF92CF93DF93EC010E94A6156B017C019B01AC016881C7
:202BC00079818A819B810E94902D688379838A839B83A70196016C817D818E819F810E9468
:202BE000902D6C837D838E839F83A7019601688579858A859B850E94902D688779878A873E
:202C00009B87DF91CF91FF90EF90DF90CF900895EF92FF920F93E0906941F0906A4104E16B
:202C200020E848E060E08AE491E40E945A070F91FF90EF900895E0911841F0911941309787
:202C400009F461C0823009F45EC090911241943678F16081718190911341492F50E083303F
:202C600019F05195419551092091144130911541460F571F421753078CF0292F30E0833003
:202C800019F03195219531098091164190911741260F371F821793070CF49C0120833183E2
:202CA000E0910E41F0910F4109951092124105C080914441980F9093124180910442909100
:202CC0000542893E934020F08091014281110BC08091084290910942893E9340A0F0809150
:202CE000F941882381F080911641909117412091144130911541821B930B853691051CF0E8
:202D00008AE08093134108951F920F920FB60F9211248F939F939091A8048091FD4193FD58
:202D200012C0811118C08091FB419091FC41049790F081E08093FA418093FD4110920642A7
:202D40001092074204C0882331F01092FD411092FB411092FC419091A8048091014292FDAB
:202D600012C0811118C08091FF4190910042049790F081E08093FE41809301421092044257
:202D80001092054204C0882331F0109201421092FF41109200429091A8048091F94194FD66
:202DA00012C0811118C08091F7419091F841049790F081E08093F6418093F9411092084235
:202DC0001092094204C0882331F01092F9411092F7411092F8418FEF8093A9049F918F9157
:202DE0000F900FBE0F901F9018951F920F920FB60F9211240BB60F928F93EF93FF93E0E423
:202E0000F1E080818E7F8083108611861092414181E08383FF91EF918F910F900BBE0F90E1
:202E20000FBE0F901F901895E0913841F0E0EE0FFF1FED54FE4B8581968197FF02C080E096
:202E400090E0809335419093364110921A4110921B4181E080936441089510922041109289
:202E600021411092224110922341809124418823E9F080914141882361F0809148019091E1
:202E80004901809342419093434181E08093644108C081E08093414180914001816080938E
:202EA000400110924801109249010895E0913841F0E0EE0FFF1FED54FE4B25813681809190
:202EC00035419091364137FF0AC00196803127E2920734F0109235411092364105C0019748
:202EE000809335419093364181E08093644108951F920F920FB60F9211240BB60F922F93E8
:202F00003F934F935F936F937F938F939F93AF93BF93EF93FF93909108048091F54190FDFA
:202F200012C0811118C08091F3419091F441049790F081E08093F2418093F54110920A42C1
:202F400010920B4204C0882331F01092F5411092F3411092F4418091080481FD04C08091FD
:202F6000A3418130B1F48FEF80930904FF91EF91BF91AF919F918F917F916F915F914F91A9
:202F80003F912F910F900BBE0F900FBE0F901F90189510921A410E942D1781E080931B411F
:202FA000E2CFCF93C4E1C093634181E0809324416091694170916A418AE491E40E944C076A
:202FC000EAE4F1E4158A178AC68B6AE277E0CF01CF910C940A09EF92FF920F931F93882326
:202FE00021F090917941911106C01F910F91FF90EF900C94081600E810E0081B110920919B
:20300000334130913441209356413093574180917841882319F0119501951109892F90E065
:20302000019742E451E0849F9001859F300D949F300D112427533A47E12CF12C48E060E05A
:203040008AE491E40E94B709809167419091684180935641909357411F910F91FF90EF90E5
:203060000895CF92DF92EF92FF92CF93DF93E0913841F0E0EE0FFF1FED54FE4BC581D681FF
:20308000D7FF0AC080916B4190916C41809333419093344180E044C06091354170913641A3
:2030A00016161706F4F4072E000C880B990B0E943A2E6B017C01BE01DD0F880B990B0E94F0
:2030C0003A2E9B01AC01C701B6010E94902D20E030E040E053E40E94CA2F0E94092E862FD1
:2030E00001C080E09091A341923021F490911A4191110EC0863528F020916B4130916C4149
:203100000BC08B3228F020916D4130916E4104C020916F413091704120933341309334414A
:20312000DF91CF91FF90EF90DF90CF900C94EB17EF92FF920F931F938091B34105E010E001
:20314000081B1109000F111FE12CF12C27EB35E849E569E58AE491E40E94B7091F910F9189
:20316000FF90EF900895CF93DF93C6E0C0935F41C0936141D0E7D093604180912741882363
:2031800099F06CE577E08AE491E40E940A09C0935F41C0936141D093604189E391E40E94F7
:2031A00006251092274104C089E391E40E94AF2460913D4170913E4142E08AE491E40E942A
:2031C0004B096AE38AE491E40E94580860913B4170913C4142E08AE491E4DF91CF910C9409
:2031E0004B098F929F92AF92BF92CF92DF92EF92FF920F931F938091A341811103C00E9473
:203200008B0402C00E94E304BC0184E0769567958A95E1F780E090E00E94382E20E030E0CD
:203220004AE755E40E94902D20E030E040E351E40E94CA2F6B017C018091B241882339F100
:20324000E09173418DEF8E0F823008F584E0E89FF0011124E257FF4BA701960160817181DB
:20326000828193810E948B2D87FF05C010921D4110921E410CC080911D4190911E41892B22
:2032800031F481E090E080931D4190931E4180911C4181118AC086E680935F418093614127
:2032A00080E78093604180917341882309F46CC0C701B6010E94FD044B015C0160917441E9
:2032C0007091754180917641909177410E94022E6B017C01C501B4010E94022E9B01AC0145
:2032E0002C193D094E095F09A4E6B0E00E94F43001E010E020E030E0A90198012C193D09F5
:203300004E095F090E94CC30CA01B9010E943A2E6B017C0120E030E040E751E40E948B2D12
:2033200087FF05C080916F419091704104C080916B4190916C418093564190935741C70133
:20334000B6010E94022E40E08AE491E40E944B0965E28AE491E40E945808809167419091E5
:2033600068418093564190935741E0906941F0906A4107E025E04091604160915F418AE49D
:2033800091E40E945A0711C021E0B701A6018AE491E41F910F91FF90EF90DF90CF90BF9026
:2033A000AF909F908F900C9470091F910F91FF90EF90DF90CF90BF90AF909F908F900895C2
:2033C000CF9380911C41811157C08BE380935F41809361418DE68093604183E796EA80937A
:2033E0004C4190934D4180912941882319F06091374102C06091384170E06F5F7F4F40E0BF
:203400008AE491E40E944B098EE497EA80934C4190934D4180912941882329F08091674197
:203420009091684104C08091694190916A41809356419093574181E380935F418093614146
:20344000CDE6C09360416CE38AE491E40E94580889E480935F4180936141C09360416EE377
:203460008AE491E40E94580880916741909168418093564190935741CF910895109263413C
:2034800010921A4110921B41109220411092214110922241109223416091694170916A41D8
:2034A0008AE491E40E944C0728E935E840E768E58AE491E40E94750A2FE835E840E765E2EC
:2034C0008AE491E40E94750A80919641882341F027E735E849E560E28AE491E40E94750A85
:2034E000809194418823D1F080916F419091704180935641909357412FE535E849E567E0DC
:203500008AE491E40E94750A80916741909168418093564190935741109225410E943118CC
:2035200081E0809364410E94E019109265410E9498188091A341811102C00C94660482E088
:203540000C943B278F929F92AF92BF92CF92DF92EF92FF921F93CF93DF93CDB7DEB72C973F
:20356000CDBFDEBF46EE51E464EE70E4CE0101960E94B114CE0101960E94D215BE016F5FCA
:203580007F4F87E991E40E9462156B017C018091944190919541009709F43FC0880F991FB7
:2035A000880F991FFC01E259FF4B80809180A280B38011E0A5019401C701B6010E94BD2F9B
:2035C00087FD10E080912541181739F1A5019401C701B6010E94BD2F87FD05C080916B4159
:2035E00090916C4104C080916F419091704180935641909357412FE535E849E567E08AE42D
:2036000091E40E94750A80916741909168418093564190935741109325412C96CDBFDEBF38
:20362000DF91CF911F91FF90EF90DF90CF90BF90AF909F908F900895CF93DF9380E380936B
:203640005F418093614188E58093604180EC90E40E941A0EEC01809196418130A9F483E7BD
:2036600096EA80934C4190934D4143E0BE018AE491E40E944B098EE497EA80934C41909308
:203680004D41DF91CF9108956DE877EA8AE491E40E94240880919641823059F4CE016DE2C3
:2036A00070E00E94B830660F771FFB01EE59FF4B13C0BE01DD0F880B990B0E943A2E20E0D9
:2036C00030E044EB51E40E94902D0E94022E660F771FFB01EE5BFF4B608171818AE491E4F5
:2036E0000E940A096AEE77EA8AE491E4DF91CF910C94240860E070E08AE491E40E944C0775
:20370000EAE4F1E4158A178A168A6BE778E6CF010E940A09E9E3F1E481E090E08483958360
:2037200085E090E082839383CF010E9406250E94660486E1809363410895AF92BF92CF9242
:20374000DF92EF92FF920F931F93CF93DF93CAE4D1E48CE28D8B8F8B8EE38E8BE091184167
:20376000F09119416081718140E0CE010E944B096DE370E4CE010E94D00887E6A82E81E421
:20378000B82EF501828193818C879D87808191818E879F87C0901441D09015410D2C000C11
:2037A000EE08FF08E0911841F091194120813181C901330FAA0BBB0B9C01AD012C193D09B7
:2037C0004E095F09A2E5B0E00E94F43020911641309117418901330F220B330BA9019801B2
:2037E0002C193D094E095F090E94CC30EE24FF24E21AF30AC12CD12C03E022E54EE467E165
:20380000CE010E948E07F501828193818E879F87808191818C879D87DF91CF911F910F91F0
:20382000FF90EF90DF90CF90BF90AF900895CF92DF92EF92FF920F931F93CF93DF93CDB7F1
:20384000DEB7A497CDBFDEBF61E080EC90E40E94A60D8CE0E4EEF0E4DE01599601900D92E9
:203860008A95E1F7CE0149960E94D215C12CD12C76019701860140E050E060E87FE3CE01D1
:203880000D960E94AD13AE01435F5F4FBE01675E7F4FCE0101960E94B114CE0101960E94FD
:2038A000D2158CE0FE013196A7E9B1E401900D928A95E1F7A496CDBFDEBFDF91CF911F91C0
:2038C0000F91FF90EF90DF90CF90089541E16EEA77E083EB91E40E949B0C4CE462E677E003
:2038E00087E691E40C949B0C80910014833211F00C94661C41E163EB71E481E094E10E9465
:20390000F40A8091B4412CE4829FC00111244CE467E671E48E5E9B4E0C94F40A41E163EBC7
:2039200071E481E094E10E94010B8091B4412CE4829FC00111244CE467E671E48E5E9B4EDA
:203940000C94010B88ED84BF81E080930001FFCF0E94661C41E163EB71E481E094E10E945F
:20396000010B4CE467E671E482E194E10E94010B4CE467E671E48EE594E10E94010B4CE44B
:2039800067E671E48AEA94E10E94010B63E280E094E10E94E20A0E94A21C10922041109241
:2039A000214110922241109223412091184130911941232B19F091E0909313419091634171
:2039C000923111F40C94F629823059F020F4813009F491C00895833009F4D2C0843069F165
:2039E0000895933199F170F49923A9F0913109F07AC00E943E1A10921C4110921D41109293
:203A00001E410895953109F453C008F446C0973109F452C068C0809138418093374181E05D
:203A2000809329418093264110924841109249411092284180917B4181110E9414178091F0
:203A4000A341882309F4E9C00C94F1188CE0E4EFF0E4ACE7B1E401900D928A95E1F760E0E6
:203A600071E48CE791E40E94D51340E050E060E070E48CE791E40E947D14E091B341F0E04B
:203A8000E555FF4B808190E08093280A9093290A10921F4160E084E009C0809140018E7FC8
:203AA000809340011092244160E081E00C94F50E60E080916241FACF1092184110921941B3
:203AC0006091E541809162410E94F50EE0910C41F0910D41309709F4A0C0099510920C4138
:203AE00010920D4108959150903108F096C08091E5410C949A1091112AC080912941882316
:203B0000D9F080913741882311F0815001C085E0E82FF0E0EE0FFF1FED54FE4B25813681C7
:203B2000232B89F38093374181E0809326411092484110924941089580911F4181116DC031
:203B4000E091B341EE2309F468C0E1503CC09150903108F062C08091E541482F50E0209152
:203B6000E44130E021503109421753070CF055C061E0680F0E94AF0F8091E5418F5F46C05E
:203B8000911135C080912941882391F080913741853010F48F5F01C080E0E82FF0E0EE0FB2
:203BA000FF1FED54FE4B25813681232B89F3BACF80911F41811131C0E091B3418E2F90E027
:203BC00005975CF5EF5FE093B341F0E0E555FF4B808190E08093280A9093290A0E94981891
:203BE00081E090E0809331419093324108958FEF890F803170F48091E541882371F06FEF70
:203C0000680F0E94AF0F8091E54181508093E5410895963111F40E94A81C0895CF93DF934C
:203C2000CDB7DEB76797CDBFDEBF81E08093A0048093A60498ED94BF90E290936800809387
:203C400062000E94741C81E090910014933209F480E0809366418EE0809345048FE0809312
:203C600041048FEF809360048AE491E40E9448068FE493EC0197F1F700C000006091724161
:203C80008AE491E40E94840A60E070E08AE491E40E944C07E091B341F0E0E555FF4B8081EF
:203CA00090E08093280A9093290A80EE9FEF8093564190935741109258411092594185E0BC
:203CC0008093E6059CE09093000A83E18093010A2EEF30E02093260A3093270AEFE7FAE106
:203CE00026E0E150F0402040E1F700C000008091000A81608093000A8BE080930B0482E05D
:203D000080930C0429E020930B0481E080930C042093AB042CE12093AC0428E020930B0495
:203D200090930C049BE19093060980930309809305098093420189E391E40E94902480EC69
:203D400090E40E943B0DE0913841F0E0EE0FFF1FED54FE4B8581968197FF02C080E090E061
:203D6000809335419093364180E29EE480930C0B90930D0B80EA809310028FE28093100BA9
:203D800081E0809342028091000B81608093000B8091B7418823C9F0809167419091684160
:203DA00080935641909357418091694190916A41809358419093594178948091664188233F
:203DC000C9F180E00E94562937C0809166418111E3CF23E13CE84AE060E38AE491E40E949B
:203DE000750A14E010935F411093614182E38093604166EF78E68AE491E40E940A091093C1
:203E00005F411093614186E78093604161EE78E68AE491E40E940A093FEF88E09DE33150C0
:203E200080409040E1F700C000008091A80483FDFCCFB2CF0E943E1A80911A0B90911B0B5A
:203E4000809344419093454110921A0B10921B0B8091FE41882329F081E00E94CD1C1092F0
:203E6000FE4180910142882389F020910442309105428091444190914541820F931F8093F9
:203E800004429093054281E00E941B168091FF41909100428430910550F420914441309105
:203EA0004541820F931F8093FF41909300428091F641882329F083E00E94CD1C1092F641AE
:203EC0008091F941882389F020910842309109428091444190914541820F931F809308428F
:203EE0009093094283E00E941B168091F7419091F8418430910550F4209144413091454170
:203F0000820F931F8093F7419093F8418091FA41882329F082E00E94CD1C1092FA418091CC
:203F2000FD41882389F020910642309107428091444190914541820F931F8093064290931E
:203F4000074282E00E941B168091FB419091FC418430910550F42091444130914541820F9C
:203F6000931F8093FB419093FC418091F241882329F084E00E94CD1C1092F2418091F541CD
:203F8000882389F020910A4230910B428091444190914541820F931F80930A4290930B42A3
:203FA00084E00E941B168091F3419091F4418430910550F42091444130914541820F931FE1
:203FC0008093F3419093F44110916341123109F441C438F4112309F484C0123009F45AC3BB
:203FE0002BCF143109F408C308F461C3163109F023CF88E180935F418093614139E03093BB
:20400000604189E391E40E94AF2460913D4170913E4142E08AE491E40E944B096AE38AE404
:2040200091E40E94580860913B4170913C4142E08AE491E40E944B098091614180935F41BD
:204040009091604180915141890F90915241890F809360410E948B0424E0969587952A9528
:20406000E1F7BC0180E090E00E94382E20E030E04AE755E40E94902D20E030E040E351E492
:204080000E94CA2FAB01BC0121E08AE491E40E94700910925F41809160418E5E8093604189
:2040A00060E080EC90E40E94A60D40E068ED70E48AE491E40E94960985E080935F41809175
:2040C00060418E5E8093604161E080EC90E40E94A60D40E064EE70E48AE491E40E9496093F
:2040E000ABCE0E94DE2A80916441882309F4AAC010926441E0913841F0E0EE0FFF1FED5478
:20410000FE4B858196818F3FEFEF9E0761F011E0843691050CF410E021E0883E93400CF4CC
:2041200020E0120F01C012E0809135419091364197FF05C0112311F012E001C011E0809147
:204140002C41181771F0E0906941F0906A4104E320E842E260E08AE491E40E945A07109341
:204160002C4180913541909136411816190624F080917A41811102C00E94311840912C4109
:20418000842F90E0FC01E855FF4B208120935F412093614122E220936041209133413091F1
:2041A000344120935641309357412091A341880F991FFC01EE55FF4B223039F520911A41EB
:2041C000222319F1608171818AE491E40E9424081092534110E080912C4190E00196212F11
:2041E00030E0821793073CF06AE08AE491E40E9458081F5FF0CF80E2809353416AEE77EA22
:204200008AE491E40E94240815C08081918180934C4190934D414E5F609135417091364128
:204220008AE491E40E944B098EE497EA80934C4190934D4180916741909168418093564134
:204240009093574180912641882341F080911C41811104C00E94E0191092264120917A417B
:20426000222309F465C08091354190913641181619060CF45DC0E0913841F0E0EE0FFF1F79
:20428000ED54FE4B85819681181619060CF050C040912F415091304180914441909145414E
:2042A000840F951F8639910528F480932F41909330413EC010922F411092304190912A4180
:2042C00081E0892780932A41882371F0223061F080916F41909170418093334190933441EE
:2042E00080E80E94EB1702C00E94081680917A418230D8F0843018F0843031F016C0809172
:204300002A4181110AC004C080912A41882329F08091694190916A4104C080916F419091A5
:204320007041809333419093344181E08093644180914641909147418B3F9105C8F080912A
:20434000A341811102C00E94F1180E94B3188091964181110E941C1B8091944190919541DD
:20436000892B11F00E94A21A10924641109247412091464130914741809144419091454119
:20438000820F931F80934641909347418091FD41811109C080912841811105C081E08093A6
:2043A00028410E94E0198091484190914941843CE9E09E0750F42091444130914541820F34
:2043C000931F80934841909349418091484190914941843C994028F1809128418823A9F02D
:2043E00080912941882371F08091374190913841981721F0809338410E94141710922941EE
:204400000E94E0191092284108C08091FD41882321F060E081E00E94F50E10924841109210
:2044200049418091314190913241893E23E0920758F06091B34181E094E10E94E20A109245
:204440003141109232410CC0009751F02091444130914541820F931F809331419093324156
:204460006091B0417091B1416115710509F45EC08091AE419091AF412091B34130E0821701
:2044800093070CF053C0E0912041F091214140911F41E617F70790F5442369F0F901E55519
:2044A000FF4B808190E08093280A9093290A10921F410E9498182091224130912341809108
:2044C000444190914541820F931F809322419093234180363AEE930748F1209120413091EC
:2044E00021412F5F3F4F209320413093214180569A4E809322419093234118C0411116C04A
:204500008150E82FF0E0E555FF4B808190E08093280A9093290A81E080931F4125EA35E853
:2045200049E569E58AE491E40E94750A20911D4130911E4180911C412037374108F43FC094
:2045400081117ACC81E080931C41E1E1E093634110922041109221411092224110922341C7
:204560006091694170916A418AE491E40E944C0780916F4190917041809356419093574124
:204580002DE533E840E260E28AE491E40E94750AFDE1F0935F41F09361412AE620936041FC
:2045A0006FE477E08AE491E40E940A09809167419091684180935641909357413DCC88231D
:2045C00021F010921C410E943E1A80911D4190911E41009709F430CC2091B241222309F46C
:2045E0002BCC2091444130914541820F931F80931D4190931E4120CC80916441882309F4C7
:204600001BCC10926441609142417091434180E090E00E94382E20E030E040E058E30E948E
:20462000CA2F20E030E04AE754E40E94CA2F4B015C01E0906941F0906A4108E120E444E16D
:2046400060E48AE491E40E945A0700E400935F41009361411093604123E0B501A4018AE4D4
:2046600091E40E94700900935F410093614134E230936041A501940160E070E68AE697E40C
:204680000E94902DAB01BC0121E08AE491E40E947009D2CB80912B41882329F010922D4165
:2046A00010922E41C9CB81E080932B41C5CB60E080EC90E40E94A60D80E091E48E8B9F8B58
:2046C000E8EDF0E4E88BF98B07E611E424EF30E42C8B3D8B8E879F8739018A8B9B8B1D865F
:2046E000EA89FB892190319041905190EA8BFB8BE889F989C190D190E190F190E88BF98B16
:20470000A7019601C201B1010E948B2D87FD02C016012701EE85FF852192319241925192E3
:20472000EE87FF87F30180809180A280B3809401A501C701B6010E948B2D87FD02C0460183
:204740005701C401D501F30180839183A283B383F801C1A0D2A0E3A0F4A0A2019101B40133
:20476000C5010E94AC2C4B015C019B01AC01B601C7010E94BD2F181614F06401750120E0ED
:2047800030E040E05FE3B601C7010E94CA2FF80161A372A383A394A3FD85FF5FFD870C5F4F
:2047A0001F4F24E0620E711CF33009F099CF8CE0E4EFF0E4DE01119601900D928A95E1F746
:2047C00060E071E4CE0101960E94D51340E050E060E070E4CE0101960E947D148E010F5FDA
:2047E0001F4F34E6F32E10925F4110926141F0926041EE89FF894191519161917191EE8B47
:20480000FF8B21E08AE491E40E947009FAE2F0935F41F80141915191619171918F0121E0DE
:204820008AE491E40E947009F4E5F0935F41EC89FD894191519161917191EC8BFD8B21E0DB
:204840008AE491E40E947009F8E0FF0E2CE7F212CACFF2CA0E94DE2A0E947B2BEDCACF92FF
:20486000DF92EF92FF920F931F9387E797E00E94C713C12CD12C760197018601B701A60121
:2048800083E897E00E94AD1300E010E020E83FE3B701A60182E997E00E94AD139701860118
:2048A00040E050E060E87FE386EE91E40E94AD131F910F91FF90EF90DF90CF9008959EED5F
:2048C000909307099091050996FFFCCF809308098091050986FFFCCF8FED809307098091D3
:2048E000050987FFFCCF8091080997E09093040908959EED909307099091050996FFFCCFA6
:20490000809308098091050986FFFCCF609308098091050986FFFCCF83E080930409089571
:2049200080E00E945F24682F606880E00E94792482E00E945F2486FF05C0682F6F7B82E040
:204940000E94792483E00E945F24682F686083E00E9479246091B54188E00C9479240F9361
:204960001F93CF93DF9300D01F92CDB7DEB78C018EED809307098091050986FFFCCF1092DB
:2049800008098091050986FFFCCF83E08093040923E0AE014F5F5F4F60E08FE60E94FE0CA5
:2049A0009981892F8695869586958E70282F220F220F820F9F70980F892F90E0F8018083B2
:2049C00091838A81982F92959F708F70FAE09F9F800D112490E0F801828393839B81892F8A
:2049E0008695869586958670282F220F220F820F9F70980F892F90E0848395832396CDBFE4
:204A0000DEBFDF91CF911F910F910895CF93DF9300D000D0CDB7DEB7FC0119821A821B82DE
:204A20001C8280E88A8382812AE0622F0E94AC3030E1839F900D11249B8384810E94AC30A1
:204A400020E1829F900D11249C838EED80930709FE013196CE0105962091050926FFFCCFC6
:204A6000219120930809E817F907B1F78091050986FFFCCF83E0809304092496CDBFDEBF44
:204A8000DF91CF910895CF92DF92EF92FF920F931F9384ED97E00E94C713C12CD12C7601AC
:204AA00097018601B701A60180EE97E00E94AD1300E010E020E83FE3B701A6018FEE97E0E4
:204AC0000E94AD131F910F91FF90EF90DF90CF900895EF92FF920F931F93CF93DF9329E761
:204AE0003AEA4BE36DE38AE491E40E94750AE0906941F0906A410FE620E841E160E08AE4FE
:204B000091E40E945A0710922742C0E0D0E010E04FE701E0FFE7FF2E6C2FC038D10509F442
:204B200045C0E0912842E027F0E0DF01A75DBD4B8C919E01280F311DC9018F779927F69576
:204B4000FE2FEE27F795E795E80FF91FEE0FFF1FE55DFD4B808191819C01E5E0369527955B
:204B6000EA95E1F7EF2CE21A2091A4413091A5412817390748F41F5F80912742811708F443
:204B8000812F8093274201C010E0E41628F44F5F242F2E194E2D03C0202F241B2E0D8AE465
:204BA00091E40E94E40621964E2DB6CF8091114280FF3FC080910C428130D9F580916B41C0
:204BC00090916C418093564190935741C091A441D091A541D7FD6F9625E0D595C7952A95C2
:204BE000E1F7D195C195D1094C2F415820E860E08AE491E40E94180710925F4110926141C1
:204C0000CB58C0936041609113427091144235E0660F771F3A95E1F743E08AE491E40E9471
:204C20004B098091674190916841809356419093574180910C428250823008F05FC080912D
:204C40006B4190916C418093564190935741C091A441D091A541D7FD6F9695E0D595C795E4
:204C60009A95E1F7D195C195D109DC2FD1582091A6418091A841280F4D2F6FE38AE491E4E9
:204C80000E941807C65825E04C2F6FE38AE491E40E94E4066091A641615C25E04C2F8AE471
:204CA00091E40E94E4066091A6418091A841680F615C25E04D2F8AE491E40E94E40660910C
:204CC000A6417091A741615C7F4F8091A8419091A941681B790B6F33710514F46FE370E0AB
:204CE00025E04D2F8AE491E40E94E40680916741909168418093564190935741E0906941C2
:204D0000F0906A4101E120E840E060E08AE491E40E945A078091114281FF15C010925F413D
:204D200010926141109260416BE078E08AE491E40E940A0960912B4470912C4445E08AE44D
:204D400091E40E944B090CE02BE140E065E68AE491E40E9466078091184190911941892BFA
:204D6000C1F00AE029E141E066E68AE491E40E9466078091694190916A41809356419093DB
:204D800057418091674190916841809358419093594187E680935F418093614182E0809345
:204DA0006041E0910C42F0E0EE0FFF1FEF54FF4B608171818AE491E40E940A0980916741F7
:204DC0009091684180935641909357418091694190916A41809358419093594186E6809335
:204DE0005F41809361418DE08093604180910C42833049F0843061F08230C9F46091A641A6
:204E00007091A74109C06091A8417091A94104C06091AC417091AD4140E08AE491E4DF9117
:204E2000CF911F910F91FF90EF900C944B09DF91CF911F910F91FF90EF900895CF93DF9321
:204E4000C0E0D6E01C86809113429091144225E0880F991F2A95E1F74F968093A441909392
:204E6000A5418C8B9D8B0E94692581E08D878C87DF91CF91089522E020930A06109200067B
:204E800010922D4495E09093A00091E0909301069093020690930306209304062091AA417C
:204EA0002093050621E12093080623E020930D0680930C062091A4413091A5412093140679
:204EC00030931506823021F4909317421092164283E08093000681E080930A06089582E0B8
:204EE00080930A0682E18093634110922B4410922C4482E192E08093254290932642809167
:204F0000A4419091A54197FD4F9625E0959587952A95E1F7809313429093144210920C4279
:204F20002091284281E0822790E0982F882730E0322F222740E050E0FA01E80FF91FE55D10
:204F4000FD4B10821182FA01E20FF31FE55DFD4B108211824E5F5F4F411561E0560761F790
:204F600081E08093164280931742809315420C943B271F920F920FB60F9211240BB60F923E
:204F80008F93EF93FF93E0E0F6E083E0858780912D448F5F80932D4481E08487FF91EF9166
:204FA0008F910F900BBE0F900FBE0F901F9018951F920F920FB60F9211240BB60F922F92F2
:204FC0003F924F925F926F927F928F929F92AF92BF92CF92DF92EF92FF920F931F932F933E
:204FE0003F934F935F936F937F938F939F93AF93BF93CF93DF93EF93FF9380911742882312
:2050000009F45FC090910D0680912D4491FF04C08F5F80932D4455C0882309F452C0909108
:20502000A641891B082E000C990B97FF03C09195819591092091A8413091A941281739070C
:20504000B4F12091AC413091AD4180910D4290910E428217930758F180916341811117C0F3
:2050600081E090911B41923009F080E080931A4181E0809364418091A341813011F40E9463
:205080002D1782E080931B4180930C060CC080912B4490912C44019680932B4490932C444D
:2050A00081E08093154210920D4210920E4280912D4490912742981710F480932742109265
:2050C0002D4480911642811104C083E080930D06B0C0209110063091110660912842462F38
:2050E00050E0FA01E75DFD4B80815695542F442757954795DA01A80FB11DAA0FBB1FA55D62
:20510000BD4B2D933C938F5F8F77808380912542909126428217930708F08BC080912D4408
:205120003090A6418090A8419090A941A090AC41B090AD41C0912B44D0912C4400910D4209
:2051400010910E429091274271E0462E4726642D70E06F01DB01A75DBD4B7D013B017694A5
:20516000762C662477946794D6016C91605C6F77262E60910D0660FFFCCF60910D0661FFA1
:2051800002C08F5F17C0682F6319062E000C770B77FF03C07195619571098616970634F0A7
:2051A0000A151B0518F0219600E010E0981708F4982F80E060911006709111065080DA0185
:2051C000A50DB11DAA0FBB1FA55DBD4B6D937C93A1E0A50DAF77A0832617370710F49B010C
:2051E000C3CFD7015C90D301A50DB11DAA0FBB1FA55DBD4B6D937C9361E0650D6F77D701E8
:205200006C9360812612B5CF80932D4400930D4210930E42C0932B44D0932C449093274278
:2052200020932542309326424092284281E080931542FF91EF91DF91CF91BF91AF919F9182
:205240008F917F916F915F914F913F912F911F910F91FF90EF90DF90CF90BF90AF909F90D5
:205260008F907F906F905F904F903F902F900F900BBE0F900FBE0F901F901895CF93DF9302
:20528000EC0110920C066091694170916A418AE491E40E944C07EAE4F1E4158A178A168ACB
:2052A000BE01CF01DF91CF910C940A09CF93C82F82E080930A0682E180936341C09312423D
:2052C000C13019F1E0F0C33009F447C0C43009F089C08AE89AE60E943E2981E0809317420E
:2052E0001092164210922B4410922C4428EE33E02093AC413093AD418093154273C083E017
:20530000809311420E946F276DC08BEF99E60E943E292FEF88E09DE3215080409040E1F7E1
:2053200000C0000023E23AEA42E66BE28AE491E40E94750A10922B4410922C4482E192E013
:2053400080932542909326421092274210921A4210921742C093164245C089E699E60E9404
:205360003E29C2E6C0935F41C093614180E1809360416091A4417091A54140E08AE491E461
:205380000E944B09C0935F41C093614188E180936041609118427091194240E08AE491E468
:2053A0000E944B09C0935F41C093614180E2809360416091A6417091A74140E08AE491E435
:2053C0000E944B09C0935F41C093614188E2809360416091A8417091A94140E08AE491E409
:2053E0000E944B0981E0CF910C943B27CF93C82F80911242833018F4813040F0A7C083307C
:2054000009F4AEC0843009F4B3C0D6C0C23039F0C33009F48DC0C13009F0CBC07BC080914E
:20542000184190911941892B29F01092184110921941BFC080910C42823009F43FC0C0F494
:20544000882371F1813009F0B4C08EE197E280930E4190930F4183E192E4809318419093FB
:205460001941109214411092154184E690E04DC08330C9F1843009F09CC089E695E280938D
:205480000E4190930F418CEA91E48093184190931941109214411092154188EE93E035C0A9
:2054A000C0930A0680916641882319F00E947A1B80C060E086E00E94F50E7BC089E695E23A
:2054C00080930E4190930F4186EA91E4809318419093194181E090E0809314419093154177
:2054E00080E490E012C089E695E280930E4190930F4188EA91E480931841909319411092D9
:2055000014411092154180E290E080931641909317414FC08091184190911941892B09F0E6
:2055200048C080910C42882309F443C081500BC08091184190911941892BD9F580910C42F7
:205540008430B8F58F5F80930C4233C0C13021F460E086E00E94F50E82E080930A062CC0E6
:20556000C23041F0C33041F584E0CF910C945629C23039F460E086E00E94F50EC0930A062F
:205580001BC08091AC419091AD4197FD019695958795C33021F41092AC411092AD412091DA
:2055A000AC413091AD41820F931F8093AC419093AD4181E080931542CF91089580910D42D3
:2055C00090910E422091AC413091AD418217930750F42091444130914541820F931F8093C3
:2055E0000D4290930E420895CF92DF92EF92FF92CF93DF93CBE1D2E4C12CD12C76016991D7
:20560000799180E090E00E94382E9B01AC01C701B6010E94AD2C6B017C0182E4C532D80740
:2056200071F720E030E040EA50E4C701B6010E94902DDF91CF91FF90EF90DF90CF9008956D
:205640004F925F926F927F928F929F92AF92BF92CF92DF92EF92FF920F931F93CF93DF9376
:205660000E94F42A2B013C01CBE1D2E405E212E4812C912C54016991799180E090E00E948D
:20568000382EA30192010E94AC2C6B017C0120E030E0A9010E94BD2F181624F0F7FAF0940B
:2056A000F7F8F094A7019601C701B6010E94CA2F9B01AC01C501B4010E94AD2C4B015C0136
:2056C0000C171D07C1F620E030E040EA50E40E94902DDF91CF911F910F91FF90EF90DF9062
:2056E000CF90BF90AF909F908F907F906F905F904F900C9461308F929F92AF92BF92CF921D
:20570000DF92EF92FF92CF9380911542882309F459C01092154280911242813069F138F1E9
:205720008230B1F1843009F04DC0C2E4C0935F41C093614183E68093604160912B4470914F
:205740002C4444E08AE491E40E944B09C0935F41C09361418CE6809360416091AC417091EF
:20576000AD4144E08AE491E40E944B092BC00E9469258BED95E022C0E0911A42F0E0EE0FBA
:20578000FF1FE55EFD4B80912542909126420AC0E0911A42F0E0EE0FFF1FE55EFD4B809141
:2057A000274290E0808391832DEC39EA42E66BE28AE491E40E94750A81E090E080930F420F
:2057C0009093104280910F42909110428D3D25E0920708F477C0809112428150823008F004
:2057E00062C023E23AEA42E66BE28AE491E40E94750A80911A428F5F80931A42853009F06D
:2058000052C080911242813089F50E94202B0E94092E6B017C0160931842709319420E94E6
:20582000F42A4B015C01B60180E090E00E94382E9B01AC01C501B4010E94AC2C2DEC3CEC93
:205840004CE45FE30E94CA2F0E94752E0E94022E6093A4417093A541609314067093150638
:2058600010921A4282E0809312421DC00E94F42A0E94752E0E94022E6093A6417093A741E8
:205880000E94202B20E030E040E450E40E94CA2F0E94752E0E94022E6093A8417093A94138
:2058A00083E00E94562982E192E080932542909326421092274210922D4410920F421092D7
:2058C00010420CC0009751F02091444130914541820F931F80930F4290931042CF91FF904A
:2058E000EF90DF90CF90BF90AF909F908F900895CF92DF92EF92FF920F931F9387E298E0C9
:205900000E94C713C12CD12C760197018601B701A60183E398E00E94AD1300E010E020E814
:205920003FE3B701A60182E498E00E94AD131F910F91FF90EF90DF90CF900895EF93FF93C9
:20594000FC01662329F085918111FDCF6150F9CFCF01FF91EF9108955058BB27AA270E9441
:20596000C42C0C946B2F0E945D2F38F00E94642F20F039F49F3F19F426F40C94332F0EF42C
:20598000E095E7FB0C94042FE92F0E947C2F58F3BA17620773078407950720F079F4A6F53A
:2059A0000C94B62F0EF4E0950B2EBA2FA02D0B01B90190010C01CA01A0011124FF27591B5D
:2059C00099F0593F50F4503E68F11A16F040A22F232F342F4427585FF3CF4695379527954E
:2059E000A795F0405395C9F77EF41F16BA0B620B730B840BBAF09150A1F0FF0FBB1F661F24
:205A0000771F881FC2F70EC0BA0F621F731F841F48F4879577956795B795F7959E3F08F036
:205A2000B0CF9395880F08F09927EE0F9795879508950E945D2F60F080E891E009F49EEFAD
:205A40000E94642F28F040E851E071F45EEF0CC00C94332F0C94B62FE92FE0780E947C2FDE
:205A600040F3092E052AB1F3261737074807590738F00E2E07F8E02569F0E025E0640AC0EB
:205A8000EF6307F8009407FADB01B9019D01DC01CA01AD01EF930E94A72D0E946B2F0E94C0
:205AA0005C2D5F91552339F02BED3FE049E450FD49EC0C94AD2C0895DF93DD27B92FBF773C
:205AC00040E85FE31616170648075B0718F4D92F0E94C22F9F938F937F936F930E94A130E0
:205AE000EEE6F3E00E94362F0E946B2F2F913F914F915F910E94DD2FDD2351F09058A2EAF9
:205B00002AED3FE049EC5FE3D0785D270E94C42CDF910C946B2F0E94E02E08F481E0089526
:205B20000E94A42D0C946B2F0E94642F58F00E945D2F40F029F45F3F29F00C94042F5111D4
:205B40000C94B72F0C94332F0E947C2F68F39923B1F3552391F3951B550BBB27AA2762177D
:205B60007307840738F09F5F5F4F220F331F441FAA1FA9F335D00E2E3AF0E0E832D09150EB
:205B80005040E695001CCAF72BD0FE2F29D0660F771F881FBB1F261737074807AB07B0E85C
:205BA00009F0BB0B802DBF01FF2793585F4F3AF09E3F510578F00C94042F0C94B72F5F3F3E
:205BC000E4F3983ED4F3869577956795B795F7959F5FC9F7880F911D9695879597F90895DF
:205BE000E1E0660F771F881FBB1F621773078407BA0720F0621B730B840BBA0BEE1F88F72E
:205C0000E09508950E94092E6894B1110C94B72F08950E94842F88F09F5798F0B92F9927C5
:205C2000B751B0F0E1F0660F771F881F991F1AF0BA95C9F714C0B13091F00E94B62FB1E01A
:205C400008950C94B62F672F782F8827B85F39F0B93FCCF3869577956795B395D9F73EF4D2
:205C600090958095709561957F4F8F4F9F4F0895E89409C097FB3EF490958095709561957A
:205C80007F4F8F4F9F4F9923A9F0F92F96E9BB279395F695879577956795B795F111F8CFA0
:205CA000FAF4BB0F11F460FF1BC06F5F7F4F8F4F9F4F16C0882311F096E911C0772321F008
:205CC0009EE8872F762F05C0662371F096E8862F70E060E02AF09A95660F771F881FDAF7A5
:205CE000880F9695879597F908950E949E2F90F09F3748F4911116F00C94B72F60E070E0DA
:205D000080E89FEB089526F41B16611D711D811D0C940A2F0C94252F0E945D2F20F019F0EB
:205D20000E94642F50F40C94332F0C94B72FE92F0E947C2F88F35523B1F3E7FB6217730791
:205D400084079507A8F189F3E92FFF2788232AF03197660F771F881FDAF7952F5527442312
:205D600032F091505040220F331F441FD2F7BB27E91BF50B621B730B840BB109B1F222F4FE
:205D8000620F731F841FB11D31972AF0660F771F881FBB1FEFCF9150504062F041F08823C4
:205DA00032F0660F771F881F91505040C1F793950C94252F8695779567959F5FD9F7F7CF13
:205DC000990F0008550FAA0BE0E8FEEF16161706E807F907C0F012161306E407F50798F0AD
:205DE000621B730B840B950B39F40A2661F0232B242B252B21F408950A2609F4A140A695E3
:205E00008FEF811D811D089597F99F6780E870E060E00895882371F4772321F09850872BAB
:205E2000762F07C0662311F499270DC09051862B70E060E02AF09A95660F771F881FDAF7ED
:205E4000880F9695879597F908959F3F31F0915020F4879577956795B795880F911D969563
:205E6000879597F908959FEF80EC0895DF93CF931F930F93FF92EF92DF927B018C01689492
:205E800006C0DA2EEF010E94DD2FFE01E894A5912591359145915591A6F3EF010E94C42C92
:205EA000FE019701A801DA9469F7DF90EF90FF900F911F91CF91DF91089500240A941616AC
:205EC000170618060906089500240A9412161306140605060895092E0394000C11F488238C
:205EE00052F0BB0F40F4BF2B11F460FF04C06F5F7F4F8F4F9F4F089557FD9058440F551F48
:205F000059F05F3F71F04795880F97FB991F61F09F3F79F087950895121613061406551F5C
:205F2000F2CF4695F1DF08C0161617061806991FF1CF869571056105089408950E94842FC9
:205F4000A0F0BEE7B91788F4BB279F3860F41616B11D672F782F8827985FF7CF86957795E9
:205F60006795B11D93959639C8F30895E894BB2766277727CB0197F908950E94E02E08F4DA
:205F80008FEF08959B01AC0160E070E080E89FE30C94902D0E94DD2F0C946B2F0E945D2FB0
:205FA00038F00E94642F20F0952311F00C94042F0C94332F11240C94B72F0E947C2F70F37B
:205FC000959FC1F3950F50E0551F629FF001729FBB27F00DB11D639FAA27F00DB11DAA1F7A
:205FE000649F6627B00DA11D661F829F2227B00DA11D621F739FB00DA11D621F839FA00DCE
:20600000611D221F749F3327A00D611D231F849F600D211D822F762F6A2F11249F5750406F
:206020009AF0F1F088234AF0EE0FFF1FBB1F661F771F881F91505040A9F79E3F510580F0A5
:206040000C94042F0C94B72F5F3FE4F3983ED4F3869577956795B795F795E7959F5FC1F7A8
:20606000FE2B880F911D9695879597F908950E94842FE8F09E37E8F09639B8F49E3848F4D7
:20608000672F782F8827985FF9CF86957795679593959539D0F3B62FB1706B0F711D811DCD
:2060A00020F487957795679593950C940A2F0C94252F0C94B72F19F416F40C94332F0C9474
:2060C000252F0E94842FB8F39923C9F3B6F39F57550B87FF0E94A5300024A0E640EA900193
:2060E00080585695979528F4805C660F771F881F20F026173707480730F4621B730B840B7F
:20610000202931294A2BA69517940794202531254A2758F7660F771F881F20F0261737074E
:20612000480730F4620B730B840B200D311D411DA09581F7B901842F9158880F96958795B8
:2061400008959B01AC010C94CA2F91505040660F771F881FD2F70895991B79E004C0991FAE
:20616000961708F0961B881F7A95C9F78095089597FB072E16F4009407D077FD09D00E9476
:20618000FF3007FC05D03EF4909581959F4F0895709561957F4F0895052E97FB1EF400942F
:2061A0000E94E33057FD07D00E94133107FC03D04EF40C94E33050954095309521953F4F8B
:2061C0004F4F5F4F089590958095709561957F4F8F4F9F4F0895EE0FFF1F0024001C0BBE46
:2061E0000790F691E02D09940E943531A59F900DB49F900DA49F800D911D11240895AA1BE9
:20620000BB1B51E107C0AA1FBB1FA617B70710F0A61BB70B881F991F5A95A9F780959095E6
:20622000BC01CD010895A1E21A2EAA1BBB1BFD010DC0AA1FBB1FEE1FFF1FA217B307E407D9
:20624000F50720F0A21BB30BE40BF50B661F771F881F991F1A9469F760957095809590950C
:206260009B01AC01BD01CF010895A29FB001B39FC001A39F700D811D1124911DB29F700D97
:20628000811D1124911D0895F894FFCF01000A006400E80310274F4E20004F4646003E3EE1
:2062A000003C3C004F4B000000F667A96582671767C2666166E86560650164CA639165C2AF
:2062C000649864186574643A642020202000DD68BD68CD68B968D968B568C968B168D56846
:2062E000AD68C568A968D168A568C168A168DD68CD68D968C968D568C568D168C16805F620
:206300007F3F14D87F3F2FA67F3F5C607F3F9E067F3FFD987E3F81177E3F35827D3F25D98E
:206320007C3F5C1C7C3F6666D6409A992141F0982691958C0E0101010A1E508CFF4E6B4982
:206340006B446B3F6B3A6B005072657373205B53454C5D20746F20636C6F736500546869AD
:206360007320666561747572652063616E6E6F740A6265207573656420696E20536F756E9D
:20638000640A446574656374696F6E206D6F64652E0A0A41747461636820616E20495220CA
:2063A00073656E736F720A616E64206368616E676520646574656374696F6E0A6D6F6465F2
:2063C00020746F20274952272E003C3C2043616E63656C004170706C7920746F203100410A
:2063E00070706C7920746F2032004170706C7920746F2033004170706C7920746F203400CA
:206400000050726F66696C6520310050726F66696C6520320050726F66696C6520330050C3
:20642000726F66696C652034003C436F70792073656C65637465643E00004F46460042618B
:2064400072206F6E6C7900436F756E746572206F6E6C7900426F746820746F676574686589
:206460007200426F746820616C7465726E6174696E67000049522053656E736F7200536F6D
:20648000756E6420446574656374696F6E00436F6D62696E656400004F4646004265617280
:2064A000696E670043617264696E616C73202838290043617264696E616C732028313629FB
:2064C00000004F464600536F6C69640042756C6C657473004261720041726300536C6F7042
:2064E0006500004120626174746572792074797065206D7573740A62652073656C6563749F
:20650000656420746F207573650A7468697320666561747572652E00566F6C746167652054
:20652000726561646F7574004E694D4820382E3476004E694D4820392E3676004C69506FF8
:2065400020372E3476004C69506F2031312E3176005374616E64616C6F6E65203976000069
:206560003C3C204261636B0053657420302520706F696E74005265736574206465666175FF
:206580006C7400536574206D616E75616C6C7900003C3C204261636B00526564004772652A
:2065A000656E00426C756500003C3C204261636B0050726573657420310050726573657440
:2065C000203200507265736574203300507265736574203400507265736574203500507252
:2065E00065736574203600003C3C204261636B0053454C2042746E2072656C6F616400418B
:206600006D6D6F20626172206469722E00456D707479206D61672E20666C617368005363D9
:206620007265656E53617665722064656C61790053637253617665722062722E206C6576CE
:20664000656C00536166657479207761726E696E6700466163746F727920726573657400CC
:20666000003C3C204261636B0053657420646574656374696F6E206D6F6465005344204149
:2066800075746F20736574757000534420446561642054696D652073657475700053442075
:2066A000546573742F4D616E2E2073657475700053442053616D706C65206C656E677468B5
:2066C00000003C3C204261636B00536574206261747465727920747970650043616C6962AD
:2066E00072617465206261747465727900456E61626C65204C56416C61726D005365742091
:20670000484120616E676C650043616C69627261746520484100003C3C204261636B00434D
:20672000616C69627261746520636F6D706173730053657420636F6D70617373206D6F645D
:20674000650053657420636C6F636B20686F7572730053657420636C6F636B206D696E75FA
:206760007465730043616C69627261746520636C6F636B004E6578742070616765203E3E22
:2067800000003C3C204261636B00526F7461746520554920393020646772730042617365EF
:2067A00020554920436F6C6F72004261636B67726F756E6420636F6C6F720022476F6F6412
:2067C0002220636F6C6F7200225761726E2220636F6C6F720022437269746963616C2220AE
:2067E000636F6C6F7200416D6D6F20426172205374796C6500003C3C2053617665202620FD
:2068000045786974004D616E6167652070726573657473004D6561737572652064656C61E7
:20682000792F524F460055492053657474696E6773005574696C697469657320736574741E
:20684000696E677300446574656374696F6E2073657474696E67730053657474696E677306
:206860002070726F66696C65730053797374656D2073657474696E67730000514320544531
:206880005354205B55505D3A20506173730A5254430A4241540A4D41470A0A4143430A0A41
:2068A00000212124002421240024232400232324002323220022232200222122002121229C
:2068C00000212420002324200020232200202122002024200020232000202220002021209A
:2068E000005072657373205B53454C5D20746F20636C6F7365004E455645522055534520E9
:206900005448452042420A434F554E5420415320494E4449434154494F4E0A464F52205345
:206920004146452048414E444C494E47210A0A414C574159532048414E444C4520594F5537
