S010000046617374555044492E7372656354
S113000071C0000081C000007FC000007DC00000FE
S11300107BC0000079C0000077C0000075C00000FC
S113002073C0000071C000006FC000006DC000000C
S11300306BC0000069C0000067C0000065C000001C
S113004063C0000061C000005FC000005DC000002C
S11300505BC0000059C0000057C0000055C000003C
S113006053C000005BC000004FC000004DC0000042
S11300704BC0000049C0000047C0000045C000005C
S113008043C0000041C000003FC000003DC000006C
S11300903BC0000039C0000037C0000035C000007C
S11300A033C0000031C000002FC000002DC000008C
S11300B02BC0000029C0000027C0000025C000009C
S11300C023C0000021C000001FC000001DC00000AC
S11300D01BC0000019C0000017C0000015C00000BC
S11300E013C0000011241FBECFEFD1E2DEBFCDBF8D
S11300F000E00CBF22E0A0E0B2E001C01D92A130FC
S1130100B207E1F702D066C07BCF60E970ED83E00F
S113011090E01ED081E080930002FFCF1F920F92E7
S11301200FB60F9211248F939F9380910002813018
S113013041F49091C6008091C00085FFFCCF90935C
S1130140C6009F918F910F900FBE0F901F9018952E
S1130150DC01CB01880F991FAA1FBB1F880F991FB1
S1130160AA1FBB1F9C01AD01220F331F441F551F43
S113017060E074E284EF90E00BD021503109E0ECB0
S1130180F0E03583248382E0808388E981830895C5
S1130190A1E21A2EAA1BBB1BFD010DC0AA1FBB1F87
S11301A0EE1FFF1FA217B307E407F50720F0A21BF9
S11301B0B30BE40BF50B661F771F881F991F1A9466
S11301C069F760957095809590959B01AC01BD0190
S10B01D0CF010895F894FFCF5C
S9030000FC
